{
    "contractName": "Leilao",
    "abi": [
        {
            "inputs": [],
            "stateMutability": "nonpayable",
            "type": "constructor"
        },
        {
            "inputs": [],
            "name": "encerrarLeilao",
            "outputs": [],
            "stateMutability": "nonpayable",
            "type": "function"
        },
        {
            "inputs": [],
            "name": "fazerLance",
            "outputs": [],
            "stateMutability": "payable",
            "type": "function"
        },
        {
            "inputs": [],
            "name": "gerente",
            "outputs": [
                {
                    "internalType": "address payable",
                    "name": "",
                    "type": "address"
                }
            ],
            "stateMutability": "view",
            "type": "function"
        },
        {
            "inputs": [],
            "name": "getUltimoPagador",
            "outputs": [
                {
                    "internalType": "address payable",
                    "name": "",
                    "type": "address"
                }
            ],
            "stateMutability": "view",
            "type": "function"
        },
        {
            "inputs": [],
            "name": "getUltimoValor",
            "outputs": [
                {
                    "internalType": "uint256",
                    "name": "",
                    "type": "uint256"
                }
            ],
            "stateMutability": "view",
            "type": "function"
        },
        {
            "inputs": [
                {
                    "internalType": "uint256",
                    "name": "inicial",
                    "type": "uint256"
                }
            ],
            "name": "iniciarLeilao",
            "outputs": [],
            "stateMutability": "nonpayable",
            "type": "function"
        },
        {
            "inputs": [],
            "name": "ultimoPagador",
            "outputs": [
                {
                    "internalType": "address payable",
                    "name": "",
                    "type": "address"
                }
            ],
            "stateMutability": "view",
            "type": "function"
        },
        {
            "inputs": [],
            "name": "ultimoValor",
            "outputs": [
                {
                    "internalType": "uint256",
                    "name": "",
                    "type": "uint256"
                }
            ],
            "stateMutability": "view",
            "type": "function"
        }
    ],
    "bytecode": "6080604052600060025534801561001557600080fd5b50600080546001600160a01b031916331790556105d5806100376000396000f3fe60806040526004361061007b5760003560e01c806340899dbb1161004e57806340899dbb146100e8578063770afef0146100fd5780639e18d08714610135578063cc8ae67f1461015557600080fd5b806310a370e3146100805780631629af95146100975780632e28be2d146100c057806331f81934146100c8575b600080fd5b34801561008c57600080fd5b50610095610173565b005b3480156100a357600080fd5b506100ad60025481565b6040519081526020015b60405180910390f35b610095610274565b3480156100d457600080fd5b506100956100e336600461051b565b610447565b3480156100f457600080fd5b506100ad6104fe565b34801561010957600080fd5b5060015461011d906001600160a01b031681565b6040516001600160a01b0390911681526020016100b7565b34801561014157600080fd5b5060005461011d906001600160a01b031681565b34801561016157600080fd5b506001546001600160a01b031661011d565b6000546001600160a01b031633146101d25760405162461bcd60e51b815260206004820152601a60248201527f507265636973612073657220676572656e746520646f2061707000000000000060448201526064015b60405180910390fd5b6002546102215760405162461bcd60e51b815260206004820152601a60248201527f41677561726465206f20696e6963696f20646f206c65696c616f00000000000060448201526064016101c9565b60006002819055600180546001600160a01b031916905580546040516001600160a01b0391909116914780156108fc02929091818181858888f19350505050158015610271573d6000803e3d6000fd5b50565b6000546001600160a01b03163314156102cf5760405162461bcd60e51b815260206004820152601b60248201527f4e616f20706f64652073657220676572656e746520646f20617070000000000060448201526064016101c9565b60025461031e5760405162461bcd60e51b815260206004820152601a60248201527f41677561726465206f20696e6963696f20646f206c65696c616f00000000000060448201526064016101c9565b6001546001600160a01b03163314156103795760405162461bcd60e51b815260206004820152601760248201527f566f63652066657a206f20756c74696d6f206c616e636500000000000000000060448201526064016101c9565b60025434116103db5760405162461bcd60e51b815260206004820152602860248201527f466f726e65636120756d2076616c6f72206d61696f7220717565206f206c616e60448201526718d948185d1d585b60c21b60648201526084016101c9565b6001546001600160a01b03161561042f576001546001600160a01b03166108fc6104053447610572565b6040518115909202916000818181858888f1935050505015801561042d573d6000803e3d6000fd5b505b600180546001600160a01b0319163317905534600255565b6000546001600160a01b031633146104a15760405162461bcd60e51b815260206004820152601a60248201527f507265636973612073657220676572656e746520646f2061707000000000000060448201526064016101c9565b600254156104e65760405162461bcd60e51b81526020600482015260126024820152714c65696c616f206a6120696e69636961646f60701b60448201526064016101c9565b6104f881670de0b6b3a7640000610553565b60025550565b6000670de0b6b3a76400006002546105169190610533565b905090565b60006020828403121561052c578081fd5b5035919050565b60008261054e57634e487b7160e01b81526012600452602481fd5b500490565b600081600019048311821515161561056d5761056d610589565b500290565b60008282101561058457610584610589565b500390565b634e487b7160e01b600052601160045260246000fdfea264697066735822122071906f91bbece0b91604ab9f8a639013d1ca8240038fba3ddb5eb75913bd09a064736f6c63430008040033",
    "sourcePath": "c:/Users/Joubert Filho/Desktop/Documentos/Classes/VII/TAC II/projeto-block/projeto-blockchain/contracts/Leilao.sol",
    "compiler": {
        "name": "solc",
        "version": "0.8.4+commit.c7e474f2"
    },
    "functionHashes": {
        "encerrarLeilao()": "10a370e3",
        "fazerLance()": "2e28be2d",
        "gerente()": "9e18d087",
        "getUltimoPagador()": "cc8ae67f",
        "getUltimoValor()": "40899dbb",
        "iniciarLeilao(uint256)": "31f81934",
        "ultimoPagador()": "770afef0",
        "ultimoValor()": "1629af95"
    },
    "gasEstimates": {
        "creation": {
            "codeDepositCost": "298600",
            "executionCost": "26178",
            "totalCost": "324778"
        },
        "external": {
            "encerrarLeilao()": "infinite",
            "fazerLance()": "infinite",
            "gerente()": "1081",
            "getUltimoPagador()": "1097",
            "getUltimoValor()": "1067",
            "iniciarLeilao(uint256)": "22045",
            "ultimoPagador()": "1059",
            "ultimoValor()": "1007"
        }
    }
}